:020000040000FA
:060000000A128A110C280F
:10000800FE00030EF0000A08F1000A128A110F2FF1
:100018000A128A110F280A128A11F7270A128A115E
:10002800C0000A128A11F6270A128A11FB00B401CD
:10003800B501B601B701B801B901BA01BB01BC01EC
:10004800BD01BE01BF01F901FA0183010A128A113B
:100058002D280A128A1572270A128A110A128A1181
:10006800F5250A128A110A128A1561270A128A11BD
:1000780001300A128A1590270A128A118312031373
:10008800B300AA290A128A11C1270A128A118312F7
:1000980003133303031D512852288D280330C00051
:1000A8000A128A1561270A128A11AD3083120313C6
:1000B800A0008030A1008030A2000A128A11C1215C
:1000C8000A128A11503083120313A0008030A10055
:1000D800C030A2000A128A11C1210A128A112730DF
:1000E80083120313B2000D30B1002530B000B00BFD
:1000F8007B28B10B7B28B20B7B2882280A128A1531
:1001080061270A128A110A128A15D8270A128A1137
:100118003C2802303306031D92289328B728043060
:10012800C0000A128A1561270A128A1188308312C0
:100138000313A0008030A1008030A2000A128A11A7
:10014800C1210A128A111A3083120313B2005E30D9
:10015800B1006D30B000B00BAF28B10BAF28B20BB7
:10016800AF28B628822803303306031DBC28BD28D3
:10017800DF280A30C0000A128A1561270A128A117C
:10018800413083120313A0008030A1008030A20008
:100198000A128A11C1210A128A117B3083120313B1
:1001A800A0008030A100C030A2000A128A11C1212B
:1001B8000A128A113C2804303306031DE428E52876
:1001C8003C28BC01BD011E30BE000030BF00073016
:1001D800C0000130B8000030B900071537282330B7
:1001E8003306031DF828F928FA28EB282A303306A5
:1001F800031DFF2800290F29BC01BD01BE01BF0155
:100208003C30A5003E30A60033080A128A11FA22B3
:100218000A128A113C28330A0319132914293C2885
:100228003C30A5003E30A60033080A128A11FA2293
:100238000A128A113C28330A0319232924293C2845
:1002480023303306031D29292A292D290530C0000A
:1002580082283A30A50033080A128A11E6230A12C6
:100268008A113C283D08A6003C08A5003F08A800C4
:100278003E08A7000A128A1168250A128A118312F9
:1002880003133C083D04031D4A294B2981293E08D4
:100298003F04031D502951298129B801B9010711CB
:1002A80087140A128A1561270A128A116D3083127F
:1002B8000313A0008030A100C230A2000A128A11E4
:1002C800C1210A128A11333083120313B200BB30E2
:1002D800B100DF30B000B00B6F29B10B6F29B20B42
:1002E8006F298312031387100A128A1561270A12CD
:1002F8008A11023083120313C00004303306031D31
:10030800862987298D290130B8000030B9000715E2
:100318003C2805303306031D922993299729B801F3
:10032800B90107113C2806303306031D9C299D2975
:100338003C28B801B90107110A128A1561270A1267
:100348008A11023083120313C0003C284008023A85
:1003580003194628013A0319F328073A0319F32821
:10036800013A0319F328023A031936290D3A0319F9
:100378001F293C280A128A110C28F2018312031340
:1003880022080A128A118B270A128A11E329F2011C
:10039800F20A2108FF00200884000A128A110022AC
:1003A8000A128A110A128A118B270A128A1101303D
:1003B80083120313A0070318A10A0030A1078312B0
:1003C80003132108FF00200884000A128A11002262
:1003D8000A128A11003A031DF229F329CB290800D1
:1003E800831603138801091189100A128A116A26D3
:0603F8000A128A11080040
:10040000FF1B0A2A83137F1883170008840A031925
:10041000FF0A080002308A000408840A82070034B8
:100420005334453454342034543449344D344534F1
:10043000203428344D344D343A3453345334293431
:1004400000342A343A3443344C3445344134523441
:100450002034203423343A3445344E345434453433
:100460005234003434342E345334543441345234FE
:1004700054342F3452344534533455344D34453488
:1004800000344D346934633472346F3477346134FA
:100490007634653420344F34763465346E34003429
:1004A00020345334453454342034543445344D349A
:1004B0005034203428344334293420340034203458
:1004C00070346F3477346534723420343D342034E2
:1004D00039343034303457342034003433342E340B
:1004E000203443344F344E3456344534433454343A
:1004F00049344F344E340034203420345434493499
:100500004D34453420345534503421342134203492
:10051000203400342034543445344D3450343A348B
:1005200020343034303430344334203400342034F8
:100530004734523449344C344C3420344D344F34E5
:100540004434453420340034543449344D34453433
:100550003A342034303430343A34303430340034A7
:1005600050346F3477346534723469346E346734A0
:1005700020344F344E340034203453344534543412
:10058000203450344F3457344534523420340034FE
:1005900032342E3420344734523449344C344C34C1
:1005A000003431342E3420344D3449344334523401
:1005B0004F34003434342E342034533454344134E2
:1005C000523454340034543449344D344534203496
:1005D0003D342034003435342E34503441345534D5
:1005E00053344534003436342E34533454344F3479
:1005F0005034003483120313AF002A302F06031D3A
:10060000022B032B112B2508840083138001840AFD
:100610008001260884008001840A8001B601B701A8
:100620007F2B0A302F020318162B172B7F2B36082F
:100630003704031D1C2B1D2B3E2B2F08A700A801E0
:100640002708F2002808F3000A30F4000030F50013
:100650000A128A15B3270A128A1183120313250876
:100660008400720883138000840A730880000130BC
:10067000B6070318B70A0030B7077F2B36033704D5
:10068000031D432B442B4D2B250884002F08831377
:100690008007840A0318800A372B02303606370495
:1006A000031D532B542B6F2B2F08A700A8012708DD
:1006B000F2002808F3000A30F4000030F5000A12B6
:1006C0008A15B3270A128A1183120313260884009D
:1006D000720883138000840A73088000372B03306C
:1006E00036063704031D752B762B7F2B26088400D6
:1006F0002F0883138007840A0318800A0E2B0A3000
:10070000F2000030F3002508840083130008F40091
:10071000840A0008F5000A128A11CD260A128A11ED
:100720007208303E83120313A9000A30A000003083
:10073000A1002508840083130008A200840A000891
:10074000A3000A128A1151270A128A118312031375
:100750002008303EAA003A30AB000A30F2000030E8
:10076000F3002608840083130008F400840A0008BC
:10077000F5000A128A11CD260A128A117208303E3B
:1007800083120313AC000A30A0000030A100260839
:10079000840083130008A200840A0008A3000A1240
:1007A0008A1151270A128A11831203132008303E3E
:1007B000AD00AE012930A0000030A100C630A2007B
:1007C0000A128A11C1210A128A1108008312031326
:1007D000AD002A302D06031DEE2BEF2BF82B25083C
:1007E000840083138001840A8001B401B5015C2C6C
:1007F0000A302D020318FD2BFE2B5C2C3408350427
:10080000031D032C042C252C2D08A600A701260867
:10081000F2002708F3006430F4000030F5000A12FB
:100820008A15B3270A128A1183120313250884003C
:10083000720883138000840A730880000130B407B3
:100840000318B50A0030B5075C2C34033504031DCA
:100850002A2C2B2C4C2C2D08A600A7012608F200D0
:100860002708F3000A30F4000030F5000A128A1558
:10087000B3270A128A118312031325088400720811
:1008800083138007840F00080318000AFF00730811
:100890007F07800084031E2C023034063504031DBC
:1008A000522C532C5C2C250884002D0883138007C0
:1008B000840A0318800AF52B6430F2000030F3003C
:1008C0002508840083130008F400840A0008F5005A
:1008D0000A128A11CD260A128A117208303E83123A
:1008E0000313A8000A30A0000030A1000A30F20073
:1008F0000030F3002508840083130008F400840A04
:100900000008F5000A128A11CD260A128A1173080E
:1009100083120313A3007208A2000A128A1151273E
:100920000A128A11831203132008303EA9000A30EC
:10093000A0000030A1002508840083130008A20055
:10094000840A0008A3000A128A1151270A128A1188
:10095000831203132008303EAA004330AB00AC01E1
:100960002830A0000030A100C830A2000A128A116D
:10097000C1210A128A110800831203138811081575
:10098000881408146430F2000030F300FF30F207DE
:100990000318F30AFF30F307720A031DD32C730AFE
:1009A000031DD32CD42CC62C831203130618D92C68
:1009B000DA2CDC2C0130672D8618DF2CE02CE22CA1
:1009C0000230672D0619E52CE62CE82C0330672D44
:1009D00088150811881408146430F2000030F30000
:1009E000FF30F2070318F30AFF30F307720A031D02
:1009F000FD2C730A031DFD2CFE2CF02C8312031317
:100A00000618032D042D062D0430672D8618092D98
:100A10000A2D0C2D0530672D06190F2D102D122DC6
:100A20000630672D88150815881008146430F20008
:100A30000030F300FF30F2070318F30AFF30F3072A
:100A4000720A031D272D730A031D272D282D1A2D29
:100A50008312031306182D2D2E2D302D0730672DF0
:100A60008618332D342D362D0830672D0619392D73
:100A70003A2D3C2D0930672D88150815881408106B
:100A80006430F2000030F300FF30F2070318F30A7D
:100A9000FF30F307720A031D512D730A031D512DF8
:100AA000522D442D831203130618572D582D5A2DFD
:100AB0002A30672D86185D2D5E2D602D0030672D44
:100AC0000619632D642D662D2330672DFF30080035
:100AD000D43083120313A0008030A1008030A20024
:100AE0000A128A11C1210A128A110A30F20000305A
:100AF000F300831203132608F5002508F4000A12F8
:100B00008A11CD260A128A117208303E831203130D
:100B1000A9000A30A0000030A1002608A300250883
:100B2000A2000A128A1151270A128A118312031392
:100B30002008303EAA003A30AB000A30F200003004
:100B4000F3002808F5002708F4000A128A11CD26C0
:100B50000A128A117208303E83120313AC000A3065
:100B6000A0000030A1002808A3002708A2000A1254
:100B70008A1151270A128A11831203132008303E6A
:100B8000AD00AE012930A0000030A1008730A200E6
:100B90000A128A11C1210A128A1123308312031307
:100BA000A0008030A100C030A2000A128A11C12129
:100BB0000A128A11DC3083120313A0008030A100D6
:100BC0009030A2000A128A11C1210A128A11E4305F
:100BD00083120313A0008030A100D030A2000A12BB
:100BE0008A11C1210A128A11080083120313A60177
:100BF0002608803EF600FF300A128A1550270A1296
:100C00008A11023083120313A5004530A400A930D5
:100C1000A300A30B092EA40B092EA50B092E01304E
:100C200083120313A60710302602031C182E192E58
:100C3000F82DA130A0008030A100C230A2000A121D
:100C40008A11C1210A128A11323083120313A000C3
:100C50008030A1009130A2000A128A11C1210A122B
:100C60008A1183120313A7012708D03EF600FF3034
:100C70000A128A1550270A128A11023083120313AE
:100C8000A5004530A400A930A300A30B452EA40B5A
:100C9000452EA50B452E013083120313A7071030F4
:100CA0002702031C542E552E342E27308312031393
:100CB000A5000D30A4002530A300A30B5D2EA40BCE
:100CC0005D2EA50B5D2E642E0A128A1561270A126D
:100CD0008A110800C330F700CD30F600F60B6E2EF7
:100CE000F70B6E2EF20133300A128A118B270A128B
:100CF0008A111B30F7009E30F600F60B7D2EF70BA5
:100D00007D2E0000F20133300A128A118B270A125D
:100D10008A11A630F600F60B8B2E0000F20133305C
:100D20000A128A118B270A128A11962E972E00001A
:100D3000F20102300A128A118B270A128A11A63098
:100D4000F600F60BA12E0000F20128300A128A11DB
:100D50008B270A128A11A630F600F60BAD2E000082
:100D6000F20101300A128A118B270A128A1104300B
:100D7000F7003D30F600F60BBB2EF70BBB2EC02E56
:100D8000F2010C300A128A118B270A128A11A6303E
:100D9000F600F60BC92E00000800F701F8017208F2
:100DA00073040319D42ED52E0A2F0130F600E12E3C
:100DB00001300310F20DF30DFF3E031DD92E01305B
:100DC000F607F31FE42EE52ED82E01300310F70DA1
:100DD000F80DFF3E031DE62E73087502031DF22E6B
:100DE00072087402031CF52EF62EFD2E7208F40212
:100DF0007308031CF503F502771401300310F30C9C
:100E0000F20CFF3E031DFE2E0130F602031D092FDA
:100E10000A2FE52E7808F3007708F2000800831205
:100E200003138C1C142F152F4A2F3808390403196B
:100E30001A2F1B2F492F0130F9070318FA0A003027
:100E4000FA07C2307906031D292F7A03031D292FC3
:100E50002A2F492FF901FA013E083F040319312FC7
:100E6000322F392F0130BE020030031CBF03BF02F6
:100E7000492F3C083D0403193E2F3F2F492F0130D5
:100E8000BC020030031CBD03BD023B30BE0000307D
:100E9000BF008C1071088A00700E8300FE0E7E0E5B
:100EA000090083120313200821040319582F592F16
:100EB000862F0130A400652F01300310A00DA10D75
:100EC000FF3E031D5D2F0130A407A11F682F692F6E
:100ED0005C2F21082302031D6F2F20082202031C10
:100EE000722F732F792F2008A2022108031CA3035D
:100EF000A30201300310A10CA00CFF3E031D7A2FAA
:100F00000130A402031D852F862F692F2308A1001D
:100F10002208A0000800F50072188F2F932F83126B
:100F200003130915962F8312031309117508F0395D
:100F300088008914A630F300F30B9C2F0000831265
:100F40000313891075080F39F30003300310F30DF4
:100F5000FF3E031DA62F0310730D88008914A630D1
:100F6000F300F30BB12F00008312031389101B3021
:100F7000F4009E30F300F30BBB2FF40BBB2F0000EB
:100F80000800C23083120313A0008030A10080301B
:100F9000A2000A128A11C1210A128A11B9308312E1
:100FA0000313A0008030A100C030A2000A128A11F1
:100FB000C1210A128A115F3083120313A00080300E
:100FC000A1009030A2000A128A11C1210A128A11CE
:100FD000CB3083120313A0008030A100D030A200D8
:100FE0000A128A11C1210A128A110800013402343E
:101E66008312031312149214FA308316031392008A
:101E76008C14831203131215080083160313060825
:101E8600073886000808F039880081138312031387
:101E960088150815881408140800F700F20176085A
:101EA6000A128A118B270A128A15F201F20A77089A
:101EB6000A128A118B270A128A150800F2010130CC
:101EC6000A128A118B270A128A150430F7003D3050
:101ED600F600F60B6C2FF70B6C2F712F08000A1209
:101EE6008A11F4210A128A150A128A1540270A1243
:101EF6008A150A128A1533270A128A1583160313BE
:101F06000711831203130711831603138710831215
:101F1600031387100B178B170800F4000A128A1197
:101F2600BC240A128A15F5007408031D9B2F9C2FEA
:101F36009E2F7508B22F750A0319A22FA32FAA2F59
:101F46007B080319A72FA82FAA2FFB019C2F750A20
:101F5600031DAE2FAF2FB12F0130FB00FF3008005D
:101F6600F601F701721CB82FB92FBF2F7408F607B8
:101F76000318F70A7508F70701300310F40DF50D7D
:101F8600FF3E031DC02F01300310F30CF20CFF3E81
:101F9600031DC72F72087304031DD22FD32FB52F2D
:101FA6007708F3007608F200080001308312031365
:101FB600A0008030A1008030A2000A128A11C1213F
:101FC6000A128A15953083120313A0008030A100EF
:101FD600C030A2000A128A11C1210A128A151230D3
:101FE60083120313A0008030A100D030A2000A1291
:0A1FF6008A11C1210A128A150800A1
:02400E00FB3F76
:00000001FF
